:100000000C946F000C94D90D0C94150E0C949F1445
:100010000C949F140C949F140C949F140C949F1494
:100020000C949F140C949F140C949F140C949F1484
:100030000C949F140C949F140C949F140C949F1474
:100040000C94A6090C949F140C949C0D0C949F1472
:100050000C949F140C949F140C949F140C949F1454
:100060000C94AE130C949F140C949F140C949F1436
:100070000C949F140C949F140C949F140C949F1434
:100080000C949F140C949F140C949F140C949F1424
:100090000C949F140C949F140C949F140C949F1414
:1000A0000C949F140C949F140C949F140C949F1404
:1000B0000C949F140100010280010203A300294C4B
:1000C00003A303BB8003BB03BD002BED03BD03C132
:1000D0008003C103C2002BEF03C203C780001124B9
:1000E0001FBECFEFD8E0DEBFCDBFE4EBF0E040E0D5
:1000F00017C0B591A59135912591059107FD0CC0CB
:1001000095918591EF01F92FE82F05900D92A21797
:10011000B307D9F7FE0104C01D92A217B307E1F798
:10012000ED3DF40731F70E949D030C944714F894B9
:02013000FFCFFF
:10013200000000000081811881810007000700147F
:100142007F147F14242A7F2A1223130864623649FB
:100152005522500005030000001C224100004122EC
:100162001C0014083E081408083E0808005030001D
:100172000008080808080060600000201008040257
:100182003E5149453E00427F40004261514946216D
:1001920041454B311814127F1027454545393C4AD9
:1001A2004949300171090503364949493606494929
:1001B200291E00363600000056360000081422417F
:1001C20000141414141400412214080201510906E7
:1001D200324979413E7E1111117E7F494949363EAD
:1001E200414141227F4141221C7F494949417F09C6
:1001F2000909013E4149497A7F0808087F00417F89
:1002020041002040413F017F081422417F4040408D
:10021200407F020C027F7F0408107F3E4141413E35
:100222007F090909063E4151215E7F091929464687
:100232004949493101017F01013F4040403F1F20B0
:1002420040201F3F4038403F631408146307087082
:1002520008076151494543007F41410002040810EB
:10026200200041417F00040201020440404040401E
:10027200000102040020545454787F484444383822
:1002820044444420384444487F3854545418087E27
:100292000901020C5252523E7F0804047800447D48
:1002A20040002040443D007F1028440000417F4030
:1002B200007C041804787C080404783844444438E8
:1002C2007C14141408081414147C7C0804040848D0
:1002D20054545420043F4440203C4040207C1C2085
:1002E20040201C3C4030403C44281028440C5050D4
:1002F200503C4464544C44000836410000007F00E6
:100302000000413608001008081008000000000034
:1003120011AE00A8013F2001004000D30100A1005E
:10032200C800DA011281017FA400A600D50180D99C
:0C03320001C2DB01208D01142E00AF0081
:10033E00AEE0B0E0E5EAF1E00C94D5124C016B01B1
:10034E001A8219828FEF9FEF9C838B831E821D82F0
:10035E0058874F833A872987A12CB12CD6016D90EF
:10036E007C90F301EA0DFB1D808181110FC0D60137
:10037E00ED93FC938081853209F0D3C13F01BFEF2D
:10038E006B1A7B0AF6017182608219C0853279F38D
:10039E00B401082E000C990B0E94090C4FEFA41A01
:1003AE00B40ADCCF8C32ACF08D32F9F489819A81AB
:1003BE0081609A8389833196D601ED93FC93D601A1
:1003CE00ED91FC9180818B3269F789819A818460ED
:1003DE00F0CF803221F489819A818860EACF83320E
:1003EE0051F489819A818061E4CF803321F489812F
:1003FE009A818260DECFB701C6010E947A109E8379
:10040E008D8397FF0BC029813A81B1E02B273A8368
:10041E0029839195819591099E838D8389819A81F6
:10042E0080FF03C08D7F9A838983D601ED91FC9165
:10043E00119780818E3249F43196ED93FC93B7017A
:10044E00C6010E947A109C838B83C6010E945712AC
:10045E00582ED601ED91FC918081082E000C990B3F
:10046E000E946414893609F443C084F4833609F477
:10047E0002C134F4853209F427C18136E1F030C16E
:10048E008436B1F188360CF4D9C02AC1803709F40C
:10049E009AC03CF48E3609F4BCC08F3609F461C0A4
:1004AE001FC1853709F440C0883709F476C08337F9
:1004BE0009F016C1F3C0652D70E0A701CE010B96B1
:1004CE000E940000892B09F426C1D601ED91FC9102
:1004DE001197CF0101968D939C932081AE01455FBC
:1004EE005F4FBE016F5F7F4FC4010E94000010C1BD
:1004FE00652D70E0970141E050E0CE010B960E9411
:10050E007E0A892B09F407C1F6018081918101963B
:10051E0091838083AE01455F5F4FBE016F5F7F4F5A
:10052E00C4010E94C308F4C0652D70E0970140E03D
:10053E0050E0CE010B960E947E0A892B09F4EBC087
:10054E00D6018D919C91119701968D939C93AE013E
:10055E00455F5F4FBE016F5F7F4FC4010E94550C18
:10056E00D7C0652D70E0970140E050E0CE010B96AC
:10057E000E947E0A892B09F4CEC0F60180819181FA
:10058E00019691838083AE01455F5F4FBE016F5F21
:10059E007F4FC4010E94B00BBBC0652D70E0970168
:1005AE0040E050E0CE010B960E947E0A892B09F4A2
:1005BE00B2C0D601ED91FC911197CF0101968D93AA
:1005CE009C9320811CC0970140E050E060EF70E0EA
:1005DE00CE010B960E947E0A892B09F49CC0F6016F
:1005EE00808191810196918380838B859C85892B57
:1005FE0029F420E030E04DE953E084C028E7AE0155
:10060E00455F5F4FBE016F5F7F4FC4010E945E0763
:10061E007FC0A501400F511F652D70E09701CE01DF
:10062E000B960E940000892B09F475C0D6018D919E
:10063E009C91119701968D939C9373C0652D70E0DC
:10064E00A701CE010B960E940000892B09F463C00E
:10065E00D601ED91FC911197CF0101968D939C934C
:10066E002081AE01455F5F4FBE016F5F7F4FC401BA
:10067E000E9400004DC0B0E85B124DC0F6018081B3
:10068E009181019691838083D701ED91FC91119711
:10069E00CF0102968D939C93808120C0B0E85B12AF
:1006AE003AC0F60180819181019691838083D701B2
:1006BE00ED91FC911197CF0102968D939C93408101
:1006CE00518120E030E01EC0B0E85B1224C0F6017C
:1006DE00208131812F5F3F4F318320838B870DC067
:1006EE0085E28B87D6016D927C921A8219821E82C8
:1006FE001D828FEF9FEF9C838B8321E030E0AE0154
:10070E00455F5F4FBE016F5F7F4FC4010E94D510E2
:10071E008A0D9B1D07C0F601808191810196918300
:0C072E008083C5012E96EFE00C94F112C0
:10073A00CF93DF93CDB7DEB764970FB6F894DEBFD9
:10074A000FBECDBF42E067E772E180E00E94350943
:10075A0084E290E024E230E0F90120812260FC0189
:10076A0020830E94F5110E94F2130E9479130E94BD
:10077A00FF1082E08093BF038091BF03882F90E02F
:10078A00292F2F938F938CE491E0892F8F938CE4F8
:10079A0091E08F930E9409130F900F900F900F9082
:1007AA0078948091BF03882379F061E27DE084ED3B
:1007BA0093E00E94E10C0E94BF1300009091C503D0
:1007CA0081E089278823D1F78CE394E10E9466139C
:1007DA000E94F2138FE791E00E94521461E573E1DF
:1007EA0084ED93E00E94E10C0E94BF131092C603AD
:1007FA0000009091C60381E089278823D1F7809170
:10080A00C1030E945E068093C2038091C2038823BB
:10081A0049F08AEA91E00E9452148091C2030E9430
:10082A008D0E08C08FEC91E00E9452148091C20391
:10083A000E948D0E8091C2038823C1F60E94D013B4
:10084A000E944C088093C3038091C303882359F004
:10085A0082E092E00E9452148091C3030E948D0E9E
:10086A0081E08093C40361E081E00E9426118093B5
:10087A00C3038091C3038823E1F01F9281E08F9321
:10088A001F9281E08F938CE292E0892F8F938CE202
:10089A0092E08F930E9409130F900F900F900F9080
:1008AA000F900F908091C3030E948D0E81E0809378
:1008BA00C40360E08EE592E00E94A8108093C3030F
:1008CA008091C303882359F080E792E00E94521472
:1008DA008091C3030E948D0E81E08093C40390919E
:1008EA00C40381E08927882329F080EB92E00E94E3
:1008FA00521404C088EE92E00E94521464ED71E131
:10090A0084ED93E00E94E10C0E94BF138091C00322
:10091A008823E1F31092C00363E081E00E9426116C
:10092A008093C3038091C3030E949D138091A30304
:10093A009091A403A091A503B091A6032B2F2F9306
:10094A002A2F2F93292F2F938F938BE193E0892FAF
:10095A008F938BE193E08F93CE010396292F2F93E8
:10096A008F930E948B138DB79EB708960FB6F89493
:10097A00DEBF0FBECDBFCE01039660E00E94A81075
:10098A008093C3038091C3030E949D1364E081E0B6
:10099A000E9426118093C3038091C3030E949D1372
:1009AA008091AB039091AC03292F2F938F9386E20A
:1009BA0093E0892F8F9386E293E08F93CE01099675
:1009CA00292F2F938F930E948B130F900F900F90C4
:1009DA000F900F900F90CE01099660E00E94A81028
:1009EA008093C30365E081E00E9426118093C303CC
:1009FA0080E00E94E70F9A8389838A818F93898195
:100A0A008F9382E393E0892F8F9382E393E08F930E
:100A1A00CE010F96292F2F938F930E948B130F903D
:100A2A000F900F900F900F900F90CE010F9660E0ED
:100A3A000E94A8108093C3038091C3030E949D1350
:100A4A008091A3039091A403A091A503B091A6035A
:100A5A002B2F2F932A2F2F93292F2F938F9381E4B4
:100A6A0093E0892F8F9381E493E08F930E94091377
:0E0A7A000F900F900F900F900F900F9047CF9E
:100A8800CF93DF93CDB7DEB72E970FB6F894DEBFBE
:100A98000FBECDBF8D876E878FEF8B8319821A8229
:100AA8008E85882F90E08F709927892B09F068C070
:100AB8008E85882F90E0807F9927892B11F080E818
:100AC8008A838091AF039091B0038B5F8C83809170
:100AD800B1039091B2038D836D818C810E945F0D6B
:100AE8008B838B81882311F08B81DBC08CE30E9480
:100AF80096128B838B81882311F08B81D2C080E47E
:100B08000E94030F8B838B818823B1F18B81C9C02D
:100B18008D85882F90E09C0120523109898191E0D0
:100B2800980F9983482F50E0C901880F991F880FA3
:100B3800991F820F931F840F951F8E5C9E4F9F8372
:100B48008E838E819F81FC0184918887888589871F
:100B580099858A81892B0E94030F8B838B81882337
:100B680011F08B819EC08091AF039091B0030196E4
:100B78009093B0038093AF038981853048F27CC09D
:100B88008E85882F90E08F709927019709F074C09F
:100B98008E85882F90E0807F9927892B11F080E837
:100BA8008A838091AF039091B003865F8C83809194
:100BB800B1039091B2038D836D818C810E945F0D8A
:100BC8008B838B81882311F08B816BC08CE30E940F
:100BD80096128B838B81882311F08B8162C080E40D
:100BE8000E94030F8B838B81882309F441C08B817A
:100BF80058C08D85882F90E09C0120523109898149
:100C080091E0980F9983482F50E0C901880F991FE8
:100C1800880F991F820F931F840F951F8E5C9E4F1C
:100C28009B878A878A859B85FC0184918C878C8524
:100C3800898799858A81892B0E94030F8B838B81F1
:100C4800882311F08B812DC099858A81892B0E9478
:100C5800030F8B838B81882311F08B8122C08091B5
:100C6800AF039091B00302969093B0038093AF03C3
:100C78008981853008F4BDCF8A810E94030F8B8358
:100C88008B81882311F08B810CC08091AF039091E8
:100C9800B00301969093B0038093AF030E9422148F
:100CA80080E02E960FB6F894DEBF0FBECDBFDF9161
:040CB800CF9108953B
:100CBC00CF93DF93CDB7DEB7A0970FB6F894DEBF16
:100CCC000FBECDBF88A382E193E09A8389838FEF17
:100CDC008D8389819A819C012F5F3F4F3A832983B1
:100CEC009F838E838E819F81FC0184918887888568
:100CFC008C830E946E1188A10E9496128D838D8127
:100D0C00882311F08D81CBC084EE0E9437128D8325
:100D1C008D81882311F08D81C2C080E090E0A0E825
:100D2C00BFE38A8B9B8BAC8BBD8B20E030E04AE71A
:100D3C0053E46A897B898C899D890E949814DC0113
:100D4C00CB018E8B9F8BA88FB98F20E030E040E8D1
:100D5C005FE36E897F89888D998D0E948E1488231C
:100D6C002CF481E090E09B8F8A8F3FC020E03FEF16
:100D7C004FE757E46E897F89888D998D0E94931473
:100D8C0018164CF520E030E040E251E46A897B898A
:100D9C008C899D890E949814DC01CB01BC01CD018A
:100DAC000E944B10DC01CB019B8F8A8F0FC089E115
:100DBC0090E09D8F8C8F8C8D9D8D0197F1F79D8F81
:100DCC008C8F8A8D9B8D01979B8F8A8F8A8D9B8DA3
:100DDC00892B69F714C06E897F89888D998D0E9443
:100DEC004B10DC01CB019B8F8A8F8A8D9B8D9F8F43
:100DFC008E8F8E8D9F8D0197F1F79F8F8E8F45C0B3
:100E0C0089819A819C012F5F3F4F3A8329839A876E
:100E1C00898789859A85FC0184918B878B850E94B3
:100E2C0037128D838D81882311F08D8138C0898193
:100E3C009A819C012F5F3F4F3A8329839D878C8732
:100E4C008C859D85FC0184918E878E858B8317C044
:100E5C0089819A819C012F5F3F4F3A832983988B1C
:100E6C008F878F859889FC018491898B89890E9451
:100E7C0037128D838D81882311F08D8110C08B8169
:100E8C009FEF980F9B83882319F78C819FEF980F06
:100E9C009C83882309F0B4CF0E94221480E0A09692
:100EAC000FB6F894DEBF0FBECDBFDF91CF91089582
:100EBC00AFE0B0E0E4E6F7E00C94D2121C016B0159
:100ECC005A8349832B83FB01828193818480958093
:100EDC0000811181A680B78097FD02C00D7F02C0F2
:100EEC0081E090E0E981FA814080518062807380DA
:100EFC009801207133273D832C83740104FF08C0B3
:100F0C00411451046104710419F032E0E31AF10840
:100F1C00F801E870FF27FF83EE8303FF03C0F1E0C5
:100F2C00EF1AF108F6010084F185E02D3197FF8767
:100F3C00EE87EA0DFB1D10829C012E193F093987A3
:100F4C002887C801827099279B878A87EB818E2F0F
:100F5C00EE0F990B9C01215431093D872C872E856E
:100F6C003F852230310530F48C819D81892B09F02D
:100F7C0042C05CC0411451046104710461F18E855E
:100F8C009F8501979F878E87C2018F7099278A3022
:100F9C00910514F4C09602C0895A9F4FEC85FD85CB
:100FAC007A9748F49C012062215631092A31310587
:100FBC0010F40E945B14EE85FF85EA0DFB1D808307
:100FCC00F1E0EF1AF10884E0769467945794479413
:100FDC008A95D1F7C4CF888599858E0D9F1D1816DB
:100FEC0019066CF21E141F040CF0BECFEA85FB85AB
:100FFC00EF2B29F6B9CFE981FA8180819181A28109
:10100C00B381892B8A2B8B2B89F0EE85FF85EA0D1A
:10101C00FB1D31972B8120838E859F8502979F879F
:10102C008E87FC01EA0DFB1D80E38083EE81FF813E
:10103C00EF2B59F02E853F85215031093F872E87A4
:10104C00F901EA0DFB1D80E28083F6014085518594
:10105C00415051092E853F85421B530BB9016A0D36
:10106C007B1D9401C1010E94770F9C01F1018081CD
:10107C00918190FF06C0F6018281938182179307BC
:0C108C000CF4C9012F96E2E10C94EE1266
:10109800CF93DF9300D00F92CDB7DEB78FEF8B835E
:1010A8008CE30E9496128B838B81882311F08B81AD
:1010B80060C081E20E9437128B838B81882311F0F4
:1010C8008B8157C080E00E9437128B838B818823E5
:1010D80011F08B814EC08FE70E9437128B838B8172
:1010E800882311F08B8145C01092B0031092AF0392
:1010F80082E20E9437128B838B81882311F08B81C7
:1011080038C080E00E9437128B838B81882311F0CE
:101118008B812FC087E00E9437128B838B818823B5
:1011280011F08B8126C01092B2031092B10380E4B3
:101138000E94030F8B838B81882311F08B8119C048
:101148001A8219820EC080E00E94030F8B838B8164
:10115800882311F08B810DC089819A8101969A8329
:10116800898389819A818115944068F30E942214A9
:0E11780080E00F900F900F90DF91CF910895BF
:10118600A2E0B0E0E9ECF8E00C94D2123C016B016D
:10119600FB0122813381A480B580808191819A836D
:1011A600898386809780FA0120803180428053802F
:1011B600B201A10157FE07C044275527BA014219BB
:1011C60053096409750937FD03C08D7F9A838983A6
:1011D600950157FC05C0898182FD02C083FF02C0CC
:1011E60021503109CE0101967C010AE010E0C601CA
:1011F6000E944B0B57FC03C0298122FF0AC00197AE
:10120600F401E80FF91F57FC02C02BE209C02DE2DA
:1012160007C023FF06C00197F401E80FF91F20E27B
:10122600208309811A81F601408551854150510973
:10123600481B590BB401680F791F9501C3010E9421
:10124600770F9C01F3018081918190FF06C0F60122
:1012560082819381821793070CF4C9012296E2E1F9
:041266000C94EE12E4
:10126A00CF93DF9300D000D0CDB7DEB789837B83DD
:10127A006A834C838981823008F05BC08981882F18
:10128A0090E0880F991F880F991F82579C4FFC0185
:10129A00808191818F52944111F080E04BC0898105
:1012AA00882F90E0009719F00197B9F032C089E6CB
:1012BA0090E029E630E0F9012081322F3C7F2C8131
:1012CA00232BFC0120838DE390E02DE330E0F9012C
:1012DA0020812160FC0120831CC089E690E029E678
:1012EA0030E0F9012081422F437F2C81222F30E008
:1012FA00220F331F220F331F242BFC0120838DE37F
:10130A0090E02DE330E0F90120812260FC01208386
:10131A0000008981882F90E0880F991F880F991FF4
:10132A0082579C4F2A813B81FC013183208381E0D3
:10133A0001C080E00F900F900F900F90DF91CF9136
:02134A00089504
:10134C001F920F920FB60F9211242F933F934F932E
:10135C005F936F937F938F939F93AF93BF93EF9311
:10136C00FF93CF93DF93CDB7DEB78091B503909108
:10137C00B60301969093B6038093B5032091B50301
:10138C003091B6038091B3039091B40328173907B9
:10139C0088F11092B6031092B5038091A703909137
:1013AC00A803A091A903B091AA030196A11DB11D98
:1013BC008093A7039093A803A093A903B093AA03C7
:1013CC0085E290E025E230E0F901308122E023272C
:1013DC00FC0120832091B7033091B8038091A703BF
:1013EC009091A803A091A903B091AA03BC01CD01CF
:1013FC00F90109950000DF91CF91FF91EF91BF9119
:10140C00AF919F918F917F916F915F914F913F9190
:0C141C002F910F900FBE0F901F9018959D
:101428000FC00E94731438F00E947A1420F095239C
:1014380011F00C9488140C949C1411240C946D14C1
:101448000E94901170F3959FC1F3950F50E0551FBE
:10145800629FF001729FBB27F00DB11D639FAA2701
:10146800F00DB11DAA1F649F6627B00DA11D661F50
:10147800829F2227B00DA11D621F739FB00DA11D71
:10148800621F839FA00D611D221F749F3327A00D2B
:10149800611D231F849F600D211D822F762F6A2FC7
:1014A80011249F5750409AF0F1F088234AF0EE0F2C
:1014B800FF1FBB1F661F771F881F91505040A9F759
:1014C8009E3F510580F00C9488140C946D145F3F76
:1014D800E4F3983ED4F3869577956795B795F79595
:1014E800E7959F5FC1F7FE2B880F911D969587950D
:0414F80097F90895C3
:1014FC00CF93DF93DC01F90168387105F1F05CF4EE
:10150C006138710561F164387105A1F160387105BC
:10151C0009F051C02FC0603C710509F441C0603F17
:10152C007105F1F1603A710509F045C0C081D181B6
:10153C00CE0102969183808325C0C081D181CE01DA
:10154C00029691838083452B39F04881042E000C40
:10155C00550B660B770B1CC0488150E029C0C0812D
:10156C00D181CE01049691838083488159816A810F
:10157C007B810EC0C081D181CE0102969183808384
:10158C00452BA1F048815981052E000C660B770B79
:10159C004D935D936D937C93139781E090E00DC018
:1015AC00C081D181CE01029691838083488159817B
:1015BC0060E070E0EDCF80E090E0DF91CF91089596
:1015CC00CF93DF9300D000D00F92CDB7DEB78A83D4
:1015DC006B834C832D838FEF89838CE30E9496124F
:1015EC0089838981882311F0898147C081E20E9417
:1015FC00371289838981882311F089813EC08A81C1
:10160C000E94371289838981882311F0898135C022
:10161C008B810E94371289838981882311F08981FB
:10162C002CC08A81882F90E09093B0038093AF03F5
:10163C0082E20E94371289838981882311F0898183
:10164C001CC08C810E94371289838981882311F0F8
:10165C00898113C08D810E943712898389818823E7
:10166C0011F089810AC08C81882F90E09093B2038D
:10167C008093B1030E94221480E00F900F900F9082
:0A168C000F900F90DF91CF910895A9
:10169600A0E0B0E0E1E5FBE00C94D412DC01280107
:1016A6001696AD90BC901797F7018081918112969E
:1016B600ED91FC9113971896CD91DC91199721978E
:1016C600F7FF02C0E1E0F0E0CA0DDB1D18826901F8
:1016D600A1E0B0E08F01021B130B4C01F2E08F2258
:1016E6009924052C000C66087708CE018A199B09F7
:1016F600CA15DB0519F1411551056105710589F01A
:10170600CB01BA01A30192010E94B211CA01A62F10
:10171600B72F605D6A9341E0C41AD108A901BC01E4
:10172600E4CF98012C0D3D1D121613064CF31C1424
:101736001D0434F48114910419F702C080E090E08E
:10174600AB2B31F4F701208131812F7E3183208349
:0A175600CDB7DEB7E0E10C94F0120D
:10176000A2E0B0E0E6EBFBE00C94D6124C016B017A
:10177000FB012281338164807580808191819A830D
:101780008983A680B78037FD03C08D7F9A838983C4
:10179000FA014081518162817381CE0101967C0101
:1017A00008E010E09301C6010E944B0B298124FF41
:1017B00006C00197F501E80FF91F20E32083298176
:1017C00023FF06C00197F501E80FF91F20E22083EF
:1017D00009811A81F6014085518541505109481B04
:1017E000590BB501680F791F9301C4010E94770F4F
:1017F0009C01F4018081918190FF06C0F6018281F5
:101800009381821793070CF4C9012296EEE00C94A1
:02181000F212D2
:101812000F931F93CF93DF93DB01109719F48FEF90
:101822009FEF3DC02D913C91119730FF25C0169638
:101832004D915C91179714962D913C9115974217F3
:10184200530778F41296ED91FC91139780831296C8
:101852002D913C9113972F5F3F4F13963C932E93FC
:10186200129716962D913C9117972F5F3F4F17961F
:101872003C932E93169713C01C96ED91FC911D97E5
:10188200309769F2EB01092F182F0995892B39F648
:101892008E819F8101969F838E83812F902FDF916E
:0818A200CF911F910F910895F1
:1018AA00A2E0B0E0EBE5FCE00C94D6125C016B011F
:1018BA00FB012281338184809580808191819A8382
:1018CA0089836680778037FD03C08D7F9A838983F9
:1018DA00FA014081518162817381CE0101967C01B6
:1018EA000AE010E09401C6010E944B0B09811A819B
:1018FA00F6014085518541505109481B590BB301E6
:10190A00680F791F9401C5010E94770F9C01F501A8
:10191A008081918190FF06C0F601828193818217AE
:0E192A0093070CF4C9012296EEE00C94F21221
:10193800CF93DF9300D0CDB7DEB789EB90E029EBEA
:1019480030E0F90120812775FC0120838CEB90E0C1
:1019580025EAFC0120831A82198289819A810196DD
:101968009A8389838CEB90E0FC01808188232CF09A
:1019780089819A818F3F914080F389EB90E0FC0147
:101988008081882F90E0887F9927089781F089EBDC
:1019980090E0FC018081882F90E0887F992740970C
:1019A80031F089EB90E0FC018081887F01C080E004
:0A19B8000F900F90DF91CF9108957A
:1019C200CF93DF9300D000D0CDB7DEB79A8389835F
:1019D2007C836B8386E490E0FC01108284E490E0D7
:1019E200FC01108285E390E0FC01108280E490E02B
:1019F2000E94B00F482F85E490E025E430E0F90121
:101A02002081242BFC01208389819A819093B40345
:101A12008093B3031092A7031092A8031092A90314
:101A22001092AA038B819C819093B8038093B70391
:101A320000000F900F900F900F90DF91CF910895BB
:101A4200CF93DF9300D000D0CDB7DEB769837A831E
:101A52008B839C838091BF0381508093BF038091CD
:101A6200BF03882379F40E94D01385E290E025E237
:101A720030E0F90120812D7FFC01208381E08093F9
:101A8200C50314C08091BF03882F90E0292F2F93A4
:101A92008F9382E091E0892F8F9382E091E08F9380
:101AA2000E9421130F900F900F900F9000000F9043
:0C1AB2000F900F900F90DF91CF910895DE
:101ABE00CF93DF9300D00F92CDB7DEB78A836B83BF
:101ACE008FEF89838A8188234CF58B81873008F5C7
:101ADE0082E090E09093B0038093AF038091B103C6
:101AEE009091B20301969093B2038093B1038091CB
:101AFE00B1039091B203282F8091AF039091B00360
:101B0E00622F0E94261189838981882311F0898191
:101B1E0006C08B81873010F081E001C080E00F900D
:0A1B2E000F900F90DF91CF91089502
:101B38001F920F920FB60F9211242F933F934F933A
:101B48005F936F937F938F939F93AF93BF93EF931D
:101B5800FF93CF93DF930F92CDB7DEB786EC90E07B
:101B6800FC01808189832091B9033091BA0389816E
:101B7800F901099586EC90E02981FC01208378948D
:101B880000000F90DF91CF91FF91EF91BF91AF913E
:101B98009F918F917F916F915F914F913F912F917D
:0A1BA8000F900FBE0F901F901895CC
:101BB2001F920F920FB60F9211242F933F934F93C0
:101BC2005F936F937F938F939F93AF93BF93EF93A3
:101BD200FF93CF93DF93CDB7DEB7809190039091BF
:101BE20091030196909391038093900320918E0329
:101BF20030918F038091900390919103F90109959F
:101C02000000DF91CF91FF91EF91BF91AF919F9132
:101C12008F917F916F915F914F913F912F910F9093
:081C22000FBE0F901F901895F2
:101C2A001F920F920FB60F9211242F933F934F9347
:101C3A005F936F937F938F939F93AF93BF93EF932A
:101C4A00FF93CF93DF93CDB7DEB780919403909142
:101C5A0095030196909395038093940320919203A0
:101C6A00309193038091940390919503F90109951A
:101C7A000000DF91CF91FF91EF91BF91AF919F91BA
:101C8A008F917F916F915F914F913F912F910F901B
:081C9A000FBE0F901F9018957A
:101CA200A2E8B0E0E7E5FEE00C94D8125C014A013C
:101CB200CF57DF4F79836883C158D040C12CD12CD4
:101CC200CF57DF4FE881F981C158D0408081882306
:101CD200E9F07401860120E830E0AE014F5F5F4F0A
:101CE200BE016F577F4FC5010E949F018C0D9D1D44
:101CF2008C159D054CF48FE490E090930101809344
:101D020000018FEF9FEF03C06C01DACFC601CE57FF
:081D1200DF4FECE00C94F41229
:101D1A00CF93DF9300D000D00F92CDB7DEB78D837B
:101D2A008D81882F90E0292F2F938F9384E391E060
:101D3A00892F8F9384E391E08F93CE0101969F932D
:101D4A008F930E948B130F900F900F900F900F900C
:101D5A000F90CE0101969F938F9389E391E0892F8B
:101D6A008F9389E391E08F930E9409130F900F904C
:101D7A000F900F9000000F900F900F900F900F9000
:061D8A00DF91CF910895E6
:101D9000CF93DF9300D00F92CDB7DEB78B838BEB61
:101DA00090E02B81220FFC0120838CEB90E024E853
:101DB000FC0120831A82198289819A8101969A8373
:101DC00089838CEB90E0FC01808188232CF0898151
:101DD0009A818F3F914080F389EB90E0FC018081F4
:101DE000882F90E0887F9927489731F089EB90E021
:101DF000FC018081887F01C080E00F900F900F90E0
:061E0000DF91CF9108956F
:101E0600CF93DF9300D00F92CDB7DEB78B838BEBEA
:101E160090E02B81FC0120838CEB90E024E8FC0110
:101E260020831A82198289819A8101969A838983ED
:101E36008CEB90E0FC01808188232CF089819A81CB
:101E46008F3F914080F389EB90E0FC018081882FE1
:101E560090E0887F9927889731F089EB90E0FC0124
:101E66008081887F01C080E00F900F900F90DF91F6
:041E7600CF9108956B
:101E7A00A0E1B0E0E3E4FFE00C94DE12FB01BA015A
:101E8A00AE014F5F5F4F7A0140E1D7011D924A953B
:101E9A00E9F742E051E05A8349839C838B83F7FF39
:101EAA0009C08FE490E090930101809300018FEFC5
:101EBA009FEF14C0A9018C013197FE83ED83C701FE
:101ECA000E9439134F8158852D813E81421753074D
:101EDA0008F49A01F801E20FF31F10826096E6E017
:041EEA000C94FA1248
:101EEE00A0E0B0E0EDE7FFE00C94D8126C015B01CE
:101EFE007A01E901480181E08822992400FD03C09E
:101F0E004217530750F0A701B501C6010E94B51242
:101F1E00EC16FD0610F0C70117C08E010E191F0931
:101F2E000115110541F0B60180E290E00E94090C06
:101F3E0001501109F5CF8114910429F4A701B501BF
:101F4E00C6010E94B512CE01CDB7DEB7ECE00C94FF
:021F5E00F4127B
:101F6000CF93DF9300D00F92CDB7DEB79B838A83E8
:101F700019828981882F90E0880F991F880F991FF7
:101F800086599C4FFC01208131818A819B812817D1
:101F9000390769F48981882F90E0880F991F880F8D
:101FA000991F84599C4FFC01808191810AC08981CD
:101FB0008F5F898389818530E0F280916C039091F5
:0E1FC0006D030F900F900F90DF91CF91089559
:101FCE00CF93DF930F92CDB7DEB789838981877068
:101FDE0089838CE790E02CE730E0F9012081322FE5
:101FEE00387F2981232BFC0120838AE790E02AE7A2
:101FFE0030E0F90120812064FC01208300008AE793
:10200E0090E0FC018081882F90E080749927892BC5
:10201E00B1F788E790E0FC01808191810F90DF910C
:04202E00CF910895B1
:102032000F931F93CF93DF938C010F5F1F4FFC0110
:1020420080816115710519F48FEF9FEF1EC0FB01AE
:1020520024853585232BC1F3EB01EC85FD85BE017B
:10206200882339F00995892B79F7F80181918F013D
:10207200F4CF8AE0099521E030E0892B11F420E0C9
:1020820030E088279927821B930BDF91CF911F9114
:042092000F9108950D
:102096000E94981188F09F5798F0B92F9927B75149
:1020A600B0F0E1F0660F771F881F991F1AF0BA95F6
:1020B600C9F714C0B13091F00E946C14B1E00895D4
:1020C6000C946C14672F782F8827B85F39F0B93FC6
:1020D600CCF3869577956795B395D9F73EF49095A9
:0E20E6008095709561957F4F8F4F9F4F0895A5
:1020F400DC01ED91FC91119780818A3221F080E01E
:1021040090E03AE00EC03196ED93FC93DB01ED9143
:10211400FC911197CF0102968D939C9380819181BC
:102124000895ED91FC911197208120532A3068F491
:10213400389FA001399F500D1124CA01820F911DAF
:0C21440031961196FC93EE93ECCF0895B9
:10215000CF93DF9300D000D0CDB7DEB79B838A83C7
:102160006C8319820FC0898191E0980F9983882F21
:1021700090E02A813B81820F931FFC0180816C815A
:102180000E9444058981882F90E02A813B81820F3B
:10219000931FFC018081882331F780E00F900F901E
:0A21A0000F900F90DF91CF9108958A
:1021AA00A0E0B0E0EBEDF0E10C94DA127C01FB0167
:1021BA00EA01C901A280B380C480D580008111815F
:1021CA00209711F4C6E9D3E0009719F4CE010E94D2
:1021DA001414B7FC04C0A816B90608F4C501960180
:1021EA00AC01BE01C7010E94770FCDB7DEB7EAE0A6
:0421FA000C94F61239
:1021FE00CF93DF93CDB7DEB78AE290E02AE230E0EC
:10220E00F90120812860FC01208380EB90E023EA15
:10221E00FC01208381EB90E025E0FC01208383EB21
:10222E0090E0FC01108284EB90E0FC01108282EBC6
:0E223E0090E0FC0110820000DF91CF91089526
:10224C00CF93DF9300D000D00F92CDB7DEB78C8345
:10225C006D838FEF89838FE78A8387E08B832B8154
:10226C004D816A818C810E94E60A89838981882349
:10227C0011F0898101C080E00F900F900F900F90AA
:08228C000F90DF91CF9108953E
:10229400990F0008550FAA0BE0E8FEEF1616170673
:1022A400E807F907C0F012161306E407F50798F0DB
:1022B400621B730B840B950B39F40A2661F0232BF4
:1022C400242B252B21F408950A2609F4A140A69570
:0822D4008FEF811D811D0895AB
:1022DC00CF93DF93CDB7DEB788EB90E022E0FC0123
:1022EC00208389EB90E0FC018081882F90E0827044
:1022FC009927AC01416089EB90E029EB30E0F901C2
:10230C002081322F242F232BFC0120830000DF910E
:04231C00CF910895C0
:1023200057FD9058440F551F59F05F3F71F0479586
:10233000880F97FB991F61F09F3F79F0879508956B
:10234000121613061406551FF2CF4695F1DF08C08A
:10235000161617061806991FF1CF869571056105A7
:042360000894089540
:10236400A1E21A2EAA1BBB1BFD010DC0AA1FBB1F95
:10237400EE1FFF1FA217B307E407F50720F0A21B07
:10238400B30BE40BF50B661F771F881F991F1A9474
:1023940069F760957095809590959B01AC01BD019E
:0423A400CF010895C8
:1023A800CF93DF9300D000D0CDB7DEB769837A83AF
:1023B8008B839C8389819A81AB81BC818093A303A1
:1023C8009093A403A093A503B093A60381E0809300
:1023D800C00300000F900F900F900F90DF91CF91E6
:0223E800089556
:1023EA00CF93DF93CDB7DEB784EC90E027E6FC010C
:1023FA00208385EC90E0FC01108280EC90E0FC01E7
:10240A00108281EC90E028E1FC01208382EC90E0CC
:10241A0026E0FC0120830E94E1130000DF91CF91A6
:02242A00089513
:10242C00CF93DF9300D00F92CDB7DEB789837B8338
:10243C006A83000080EC90E0FC018081882F90E0A2
:10244C0080729927892BB1F386EC90E02981FC01ED
:10245C00208380E090E00F900F900F90DF91CF9150
:02246C000895D1
:10246E00CF93DF9300D0CDB7DEB78A838FEF89830A
:10247E0080E80E94030F89838981882311F0898166
:10248E000AC08A810E94030F89838981882311F0F3
:10249E00898101C080E00F900F90DF91CF91089558
:1024AE00CF93DF93EC0190E0E92FF0E0EE0FFF1FEA
:1024BE00EC5AFC4F8081811102C081810EC0A8812F
:1024CE00B9812C91821305C091811196B983A8838D
:1024DE0001C09F5F9B3040F3892FDF91CF9108950C
:1024EE00CF93DF9300D0CDB7DEB79A8389838091E7
:1024FE00AB039091AC0301969093AC038093AB0326
:10250E0089819A819093AE038093AD0381E080938D
:0E251E00C00300000F900F90DF91CF91089541
:10252C00CF93DF9300D0CDB7DEB78A838FEF89834B
:10253C000E949C0C89838981882311F089810AC0AF
:10254C008A810E94C80E89838981882311F0898130
:0E255C0001C080E00F900F90DF91CF910895A5
:10256A00A0E0B0E0EBEBF2E10C94DC126C01EB01C1
:10257A008A017B01E40EF51ECE15DF0541F0899133
:10258A00B601082E000C990B0E94090CF5CFC80160
:0A259A00CDB7DEB7E8E00C94F812AC
:1025A4002F923F924F925F926F927F928F929F925F
:1025B400AF92BF92CF92DF92EF92FF920F931F934D
:1025C400CF93DF93CDB7DEB7CA1BDB0B0FB6F894FE
:0825D400DEBF0FBECDBF09946C
:1025DC002A88398848885F846E847D848C849B84A7
:1025EC00AA84B984C884DF80EE80FD800C811B81B5
:1025FC00AA81B981CE0FD11D0FB6F894DEBF0FBEE4
:06260C00CDBFED010895B1
:10261200A0E0B0E0EFE0F3E10C94E212AE014B5F18
:102622005F4FFA0161917191AF01E091BB03F091AB
:10263200BC03808191810E943913E2E00C94FE1266
:10264200A0E0B0E0E7E2F3E10C94E212AE014B5FEE
:102652005F4FFA0161917191AF01E091BB03F0917B
:10266200BC03808191810E943913E2E00C94FE1236
:10267200A2E0B0E0EFE3F3E10C94E0128C015A83A4
:102682004983AE014F5F5F4F0E94510EF8012081D6
:1026920024FF02C08FEF9FEF2296E4E00C94FC121D
:1026A200CF93DF9300D000D0CDB7DEB769837A83B2
:1026B2008B839C8381E08093C60300000F900F9070
:0A26C2000F900F90DF91CF91089563
:1026CC00CF93DF9300D0CDB7DEB79A83898389810E
:1026DC009A819093BA038093B90300000F900F90E6
:0626EC00DF91CF9108957B
:1026F200CF93DF93CDB7DEB78CE790E020E4FC0107
:1027020020838AE790E026E8FC0120830000DF9125
:04271200CF910895C6
:10271600A0E0B0E0E1E9F3E10C94E212AE01475F1C
:102726005F4F6F8178858D819E810E948114E2E0E2
:042736000C94FE12EF
:10273A00CF93DF930F92CDB7DEB789838981882340
:10274A0019F089810E948D0E00000F90DF91CF91C0
:02275A000895E0
:10275C001F920F920FB60F921124CF93DF93CDB728
:10276C00DEB70000DF91CF910F900FBE0F901F903E
:02277C001895AE
:10277E00CF93DF93CDB7DEB78EE690E02EE630E056
:10278E00F90120812160FC0120830000DF91CF91AF
:02279E0008959C
:1027A000CF93DF93CDB7DEB78EE690E02EE630E034
:1027B000F90120812E7FFC0120830000DF91CF9161
:0227C00008957A
:1027C200CF93DF93CDB7DEB78091BB039091BC036B
:1027D2002EE733E0FC01318320830000DF91CF91AB
:0227E200089558
:1027E400CF93DF93CDB7DEB781EC90E021EC30E0FE
:1027F400F90120812068FC0120830000DF91CF9142
:02280400089535
:10280600092E0394000C11F4882352F0BB0F40F4F8
:10281600BF2B11F460FF04C06F5F7F4F8F4F9F4F38
:02282600089513
:10282800FC01AF014F5F5F4F2081222311F0FA01B5
:0C283800F8CF9F01281B390BC90108953F
:10284400CF93DF93CDB7DEB78CEB90E024E9FC01A6
:0A28540020830000DF91CF9108956A
:10285E00CF93DF9300D0CDB7DEB79A838983000084
:0A286E000F900F90DF91CF910895B5
:10287800CF93DF930F92CDB7DEB7898300000F9017
:06288800DF91CF910895DD
:10288E00EC010E94A4140E94A314CE010E94A51470
:06289E00CE010E94A1140E
:1028A400E091BB03F091BC03608171810E94191017
:0228B400089585
:1028B6009C01215631092A31310510F48F7599276B
:0228C600089573
:1028C8009C01215431092A31310508F480620895A8
:0E28D800E894BB2766277727CB0197F9089570
:0E28E60000240A94161617061806090608950F
:0E28F40000240A941216130614060506089511
:0E2902009A01AB016FEF7FE70E943D0F089531
:0C29100097F99F6780E870E060E0089590
:0A291C000E944A1108F481E00895BA
:0A2926000E944A1108F48FEF089593
:082930000E94140A0C94031428
:062938009FEF80EC089502
:04293E000C940000F5
:042942000E94970058
:022946000895F2
:022948000895F0
:02294A000895EE
:10294C0025642073656B756E6465722074696C62A6
:10295C006167652074696C20416461667275697485
:10296C0020446973706C6179204F70737461727458
:10297C000A003078257800446973706C61792043C3
:10298C006F6465203A2025730A000A56656E7465DB
:10299C007220692025642073656B756E64657220E6
:1029AC0070E52041646166727569742044697370C6
:1029BC006C6179204F7073746172740A000A0A4E4C
:1029CC00752073746172746572207669206D65640C
:1029DC0020617420746573746520446973706C6134
:1029EC007965742021212100446973706C61792010
:1029FC004E4F542070726F7065726C7920696E69DD
:102A0C007469616C697A65642021212100446973C1
:102A1C00706C61792070726F7065726C7920696E60
:102A2C00697469616C697A656420692044697370A2
:102A3C006C617954657374436F64652021212100A6
:102A4C0046656A6C207665642066756E6B74696F7A
:102A5C006E656E203A20535344313330365F436CED
:102A6C0065617253637265656E0046656A6C2076AB
:102A7C0065642066756E6B74696F6E656E203A20A6
:102A8C00535344313330365F536574506F736974EC
:102A9C00696F6E2825642C2564290A0068347064DB
:102AAC00303131313235207374797265720046657C
:102ABC006A6C207665642066756E6B74696F6E65E2
:102ACC006E203A20535344313330365F4472617771
:102ADC00537472696E67282757616974696E672031
:102AEC00212121272C204E4F524D414C2900446965
:102AFC0073706C61792070726F7065726C7920697B
:102B0C006E697469616C697A6564206F6720696E9F
:102B1C0067656E2066656A6C2068657265667465AB
:102B2C00722021212100446973706C6179207072CC
:102B3C006F7065726C7920696E697469616C697A01
:102B4C006564206D656E2066656A6C2068657265CB
:102B5C0066746572202121210054696D6572203ED6
:102B6C0020256400436C69636B73203E2025640050
:102B7C004144436F756E746572203E202564005489
:102B8C00696D6572436F756E746572203A202564A9
:022B9C000A002D
:102B9E0068076C094C836A9074A07AC000806888BC
:062BAE0000846C8200812E
:102BB40001000100080002004000030000010400BD
:042BC4000004050004
:102BC80003000000000000000000000016120000D2
:082BD8002F1400002F1400006F
:072BE000286E756C6C2900E2
:062BE700286E696C290054
:022BED00BD0326
:012BEF003CA9
:00000001FF
