:100000000C946F000C94050B0C94CF0A0C94ED0E1D
:100010000C94ED0E0C94ED0E0C94ED0E0C94ED0E74
:100020000C94ED0E0C94ED0E0C94ED0E0C94ED0E64
:100030000C94ED0E0C94ED0E0C94ED0E0C94ED0E54
:100040000C94CB070C94ED0E0C943A0B0C94ED0E23
:100050000C94ED0E0C94ED0E0C94ED0E0C94ED0E34
:100060000C94F20E0C94ED0E0C94ED0E0C94ED0E1F
:100070000C94ED0E0C94ED0E0C94ED0E0C94ED0E14
:100080000C94ED0E0C94ED0E0C94ED0E0C94ED0E04
:100090000C94ED0E0C94ED0E0C94ED0E0C94ED0EF4
:1000A0000C94ED0E0C94ED0E0C94ED0E0C94ED0EE4
:1000B0000C94ED0E010001028001020380001DEE90
:1000C00003800398800398039A00206C039A03A18D
:1000D0008003A103A200206E03A203A480001124C8
:1000E0001FBECFEFD8E0DEBFCDBFE4EBF0E040E0D5
:1000F00017C0B591A59135912591059107FD0CC0CB
:1001000095918591EF01F92FE82F05900D92A21797
:10011000B307D9F7FE0104C01D92A217B307E1F798
:10012000ED3DF40731F70E949D030C94850EF89481
:02013000FFCFFF
:10013200000000000081811881810007000700147F
:100142007F147F14242A7F2A1223130864623649FB
:100152005522500005030000001C224100004122EC
:100162001C0014083E081408083E0808005030001D
:100172000008080808080060600000201008040257
:100182003E5149453E00427F40004261514946216D
:1001920041454B311814127F1027454545393C4AD9
:1001A2004949300171090503364949493606494929
:1001B200291E00363600000056360000081422417F
:1001C20000141414141400412214080201510906E7
:1001D200324979413E7E1111117E7F494949363EAD
:1001E200414141227F4141221C7F494949417F09C6
:1001F2000909013E4149497A7F0808087F00417F89
:1002020041002040413F017F081422417F4040408D
:10021200407F020C027F7F0408107F3E4141413E35
:100222007F090909063E4151215E7F091929464687
:100232004949493101017F01013F4040403F1F20B0
:1002420040201F3F4038403F631408146307087082
:1002520008076151494543007F41410002040810EB
:10026200200041417F00040201020440404040401E
:10027200000102040020545454787F484444383822
:1002820044444420384444487F3854545418087E27
:100292000901020C5252523E7F0804047800447D48
:1002A20040002040443D007F1028440000417F4030
:1002B200007C041804787C080404783844444438E8
:1002C2007C14141408081414147C7C0804040848D0
:1002D20054545420043F4440203C4040207C1C2085
:1002E20040201C3C4030403C44281028440C5050D4
:1002F200503C4464544C44000836410000007F00E6
:100302000000413608001008081008000000000034
:1003120011AE00A8013F2001004000D30100A1005E
:10032200C800DA011281017FA400A600D50180D99C
:0C03320001C2DB01208D01142E00AF0081
:10033E00AEE0B0E0E5EAF1E00C94360D4C016B0155
:10034E001A8219828FEF9FEF9C838B831E821D82F0
:10035E0058874F833A872987A12CB12CD6016D90EF
:10036E007C90F301EA0DFB1D808181110FC0D60137
:10037E00ED93FC938081853209F0D3C13F01BFEF2D
:10038E006B1A7B0AF6017182608219C0853279F38D
:10039E00B401082E000C990B0E94D5084FEFA41A39
:1003AE00B40ADCCF8C32ACF08D32F9F489819A81AB
:1003BE0081609A8389833196D601ED93FC93D601A1
:1003CE00ED91FC9180818B3269F789819A818460ED
:1003DE00F0CF803221F489819A818860EACF83320E
:1003EE0051F489819A818061E4CF803321F489812F
:1003FE009A818260DECFB701C6010E949F0B9E8359
:10040E008D8397FF0BC029813A81B1E02B273A8368
:10041E0029839195819591099E838D8389819A81F6
:10042E0080FF03C08D7F9A838983D601ED91FC9165
:10043E00119780818E3249F43196ED93FC93B7017A
:10044E00C6010E949F0B9C838B83C6010E94D70C12
:10045E00582ED601ED91FC918081082E000C990B3F
:10046E000E94B50E893609F443C084F4833609F42C
:10047E0002C134F4853209F427C18136E1F030C16E
:10048E008436B1F188360CF4D9C02AC1803709F40C
:10049E009AC03CF48E3609F4BCC08F3609F461C0A4
:1004AE001FC1853709F440C0883709F476C08337F9
:1004BE0009F016C1F3C0652D70E0A701CE010B96B1
:1004CE000E940000892B09F426C1D601ED91FC9102
:1004DE001197CF0101968D939C932081AE01455FBC
:1004EE005F4FBE016F5F7F4FC4010E94000010C1BD
:1004FE00652D70E0970141E050E0CE010B960E9411
:10050E00FE06892B09F407C1F601808191810196BF
:10051E0091838083AE01455F5F4FBE016F5F7F4F5A
:10052E00C4010E948C06F4C0652D70E0970140E076
:10053E0050E0CE010B960E94FE06892B09F4EBC00B
:10054E00D6018D919C91119701968D939C93AE013E
:10055E00455F5F4FBE016F5F7F4FC4010E9421094F
:10056E00D7C0652D70E0970140E050E0CE010B96AC
:10057E000E94FE06892B09F4CEC0F601808191817E
:10058E00019691838083AE01455F5F4FBE016F5F21
:10059E007F4FC4010E942508BBC0652D70E09701F6
:1005AE0040E050E0CE010B960E94FE06892B09F426
:1005BE00B2C0D601ED91FC911197CF0101968D93AA
:1005CE009C9320811CC0970140E050E060EF70E0EA
:1005DE00CE010B960E94FE06892B09F49CC0F601F3
:1005EE00808191810196918380838B859C85892B57
:1005FE0029F420E030E04AE753E084C028E7AE015A
:10060E00455F5F4FBE016F5F7F4FC4010E94F804CC
:10061E007FC0A501400F511F652D70E09701CE01DF
:10062E000B960E940000892B09F475C0D6018D919E
:10063E009C91119701968D939C9373C0652D70E0DC
:10064E00A701CE010B960E940000892B09F463C00E
:10065E00D601ED91FC911197CF0101968D939C934C
:10066E002081AE01455F5F4FBE016F5F7F4FC401BA
:10067E000E9400004DC0B0E85B124DC0F6018081B3
:10068E009181019691838083D701ED91FC91119711
:10069E00CF0102968D939C93808120C0B0E85B12AF
:1006AE003AC0F60180819181019691838083D701B2
:1006BE00ED91FC911197CF0102968D939C93408101
:1006CE00518120E030E01EC0B0E85B1224C0F6017C
:1006DE00208131812F5F3F4F318320838B870DC067
:1006EE0085E28B87D6016D927C921A8219821E82C8
:1006FE001D828FEF9FEF9C838B8321E030E0AE0154
:10070E00455F5F4FBE016F5F7F4FC4010E94F80BC4
:10071E008A0D9B1D07C0F601808191810196918300
:0C072E008083C5012E96EFE00C946D0D49
:10073A00CF93DF93CDB7DEB762970FB6F894DEBFDB
:10074A000FBECDBF42E064E17EE080E00E94970ADE
:10075A00219A0E94380E0E94D60E82E08093A3034B
:10076A008091A3031F928F938CE491E09F938F93C0
:10077A000E94B80D78948091A3030F900F900F9068
:10078A000F90882361F067EF7CE084ED93E00E948C
:10079A004B0C0E94CA0E80919D038823E1F381EFDE
:1007AA009EE00E94DC0E0E94D60E8FE791E00E9426
:1007BA00A30E61EE7EE084ED93E00E944B0C0E9452
:1007CA00CA0E10929C0380919C038823E1F38091C6
:1007DA00A1030E947E088093A0038091A00388232E
:1007EA0049F08AEA91E00E94A30E8091A0030E9438
:1007FA00CD0B08C08FEC91E00E94A30E8091A0035C
:10080A000E94CD0B8091A0038111DBCF0E94D00EF4
:10081A000E94A90980939F0380919F03882359F01E
:10082A0082E092E00E94A30E80919F030E94CD0B6A
:10083A0081E080939E0361E081E00E94C40E809370
:10084A009F0380919F038823B9F01F9211E01F93A1
:10085A001F921F938CE292E09F938F930E94B80D90
:10086A0080919F030E94CD0B10939E030F900F90CF
:10087A000F900F900F900F9060E08EE592E00E942B
:10088A004F0D80939F0380919F03882359F080E73F
:10089A0092E00E94A30E80919F030E94CD0B81E0FB
:1008AA0080939E0380919E03811105C080EB92E0A4
:1008BA000E94A30E04C088EE92E00E94A30E66E591
:1008CA007EE084ED93E00E944B0C0E94CA0E0BE17D
:1008DA0013E0CE0101964C016E0197E0C90ED11CBE
:1008EA007E018DE0E80EF11C0F2EFEE1AF2EF3E043
:1008FA00BF2EF02D8091A2038823E1F31092A20368
:10090A0063E081E00E94C40E80939F0380919F035D
:10091A000E94E50E8091800390918103A091820349
:10092A00B0918303BF93AF939F938F931F930F93BA
:10093A009F928F920E94260E60E0C4010E944F0D82
:10094A0080939F0380919F030E94E50E64E081E0FB
:10095A000E94C40E80939F0380919F030E94E50E1C
:10096A0080918A0390918B039F938F931F930F9388
:10097A00DF92CF920E94260E60E0C6010E944F0DC0
:10098A0080939F0365E081E00E94C40E80939F03D9
:10099A0080E00E94000E9F938F931F930F93FF9204
:1009AA00EF920E94260E60E0C7010E944F0D8093CD
:1009BA009F0380919F030E94E50E8091800390918E
:1009CA008103A0918203B0918303BF93AF939F9356
:1009DA008F93BF92AF920E94B80D0FB6F894DEBF04
:0609EA000FBECDBF87CF58
:1009F000AFE0B0E0EEEFF4E00C94330D1C016B01BE
:100A00005A8349832B83FB01828193818480958063
:100A100000811181A680B78097FD02C00D7F02C0C2
:100A200081E090E0E981FA814080518062807380AA
:100A30009801207133273D832C83740104FF08C083
:100A4000411451046104710419F032E0E31AF10811
:100A5000F801E870FF27FF83EE8303FF03C0F1E096
:100A6000EF1AF108F6010084F185E02D3197FF8738
:100A7000EE87EA0DFB1D10829C012E193F09398774
:100A80002887C801827099279B878A87EB818E2FE0
:100A9000EE0F990B9C01215431093D872C872E853F
:100AA0003F852230310530F48C819D81892B09F0FE
:100AB00042C05CC0411451046104710461F18E852F
:100AC0009F8501979F878E87C2018F7099278A30F3
:100AD000910514F4C09602C0895A9F4FEC85FD859C
:100AE0007A9748F49C012062215631092A31310558
:100AF00010F40E94AC0EEE85FF85EA0DFB1D80838D
:100B0000F1E0EF1AF10884E07694679457944794E3
:100B10008A95D1F7C4CF888599858E0D9F1D1816AB
:100B200019066CF21E141F040CF0BECFEA85FB857B
:100B3000EF2B29F6B9CFE981FA8180819181A281D9
:100B4000B381892B8A2B8B2B89F0EE85FF85EA0DEB
:100B5000FB1D31972B8120838E859F8502979F8770
:100B60008E87FC01EA0DFB1D80E38083EE81FF810F
:100B7000EF2B59F02E853F85215031093F872E8775
:100B8000F901EA0DFB1D80E28083F6014085518565
:100B9000415051092E853F85421B530BB9016A0D07
:100BA0007B1D9401C1010E945E0A9C01F1018081BC
:100BB000918190FF06C0F60182819381821793078D
:0C0BC0000CF4C9012F96E2E10C946A0DC0
:100BCC00FF920F931F93CF93DF93C82F862F8F70B5
:100BDC0090E0009709F03AC0607F11F010E801C076
:100BEC0010E080918E0360918C038B5F0E94930CBC
:100BFC00811186C08CE30E947A0E811181C080E441
:100C0C000E949F0D81117CC08C2F90E08097EC018D
:100C1C00CC0FDD1FCC0FDD1FC80FD91FCE5CDE4FF4
:100C2C0005E0FE018491812B0E949F0D811168C00B
:100C3C0080918E0390918F03019690938F038093F4
:100C4C008E03015021960111ECCF47C0019709F09A
:100C5C0043C0607F11F010E801C010E080918E035A
:100C6C0060918C03865F0E94930C811149C08CE3C8
:100C7C000E947A0E811144C080E40E949F0D811164
:100C8C003FC08C2F90E08097EC01CC0FDD1FCC0F78
:100C9C00DD1FC80FD91FCE5CDE4F0F2EF5E0FF2EE7
:100CAC00F02DFE010491012B802F0E949F0D8111CC
:100CBC0027C0802F0E949F0D811122C080918E032E
:100CCC0090918F03029690938F0380938E03FA94E6
:100CDC002196F110E6CF01C010E0812F0E949F0DEC
:100CEC00C82F81110DC080918E0390918F030196B6
:100CFC0090938F0380938E030E94E90E8C2F00C07B
:0C0D0C00DF91CF911F910F91FF9008958F
:100D1800A2E0B0E0E2E9F6E00C94330D3C016B018F
:100D2800FB0122813381A480B580808191819A83DF
:100D3800898386809780FA012080318042805380A1
:100D4800B201A10157FE07C044275527BA0142192D
:100D580053096409750937FD03C08D7F9A83898318
:100D6800950157FC05C0898182FD02C083FF02C03E
:100D780021503109CE0101967C010AE010E0C6013C
:100D88000E94660757FC03C0298122FF0AC0019709
:100D9800F401E80FF91F57FC02C02BE209C02DE24D
:100DA80007C023FF06C00197F401E80FF91F20E2EE
:100DB800208309811A81F6014085518541505109E6
:100DC800481B590BB401680F791F9501C3010E9494
:100DD8005E0A9C01F3018081918190FF06C0F601B3
:100DE80082819381821793070CF4C9012296E2E16C
:040DF8000C946A0DE0
:100DFC00CF93DF93DC01F90168387105F1F05CF4F5
:100E0C006138710561F164387105A1F160387105C3
:100E1C0009F051C02FC0603C710509F441C0603F1E
:100E2C007105F1F1603A710509F045C0C081D181BD
:100E3C00CE0102969183808325C0C081D181CE01E1
:100E4C00029691838083452B39F04881042E000C47
:100E5C00550B660B770B1CC0488150E029C0C08134
:100E6C00D181CE01049691838083488159816A8116
:100E7C007B810EC0C081D181CE010296918380838B
:100E8C00452BA1F048815981052E000C660B770B80
:100E9C004D935D936D937C93139781E090E00DC01F
:100EAC00C081D181CE010296918380834881598182
:100EBC0060E070E0EDCF80E090E0DF91CF9108959D
:100ECC00A0E0B0E0ECE6F7E00C94350DDC01280175
:100EDC001696AD90BC901797F70180819181129670
:100EEC00ED91FC9113971896CD91DC911997219760
:100EFC00F7FF02C0E1E0F0E0CA0DDB1D18826901CA
:100F0C00A1E0B0E08F01021B130B4C01F2E08F2229
:100F1C009924052C000C66087708CE018A199B09C8
:100F2C00CA15DB0519F1411551056105710589F0EB
:100F3C00CB01BA01A30192010E94B50CCA01A62FE4
:100F4C00B72F605D6A9341E0C41AD108A901BC01B6
:100F5C00E4CF98012C0D3D1D121613064CF31C14F6
:100F6C001D0434F48114910419F702C080E090E060
:100F7C00AB2B31F4F701208131812F7E318320831B
:0A0F8C00CDB7DEB7E0E10C946C0D68
:100F96001F920F920FB60F9211242F933F934F93E8
:100FA6005F936F937F938F939F93AF93BF93EF93CB
:100FB600FF938091920390919303019690939303EC
:100FC600809392032091940330919503821793079F
:100FD60040F11092930310929203809184039091B2
:100FE6008503A0918603B09187030196A11DB11DCB
:100FF6008093840390938503A0938603B09387031D
:1010060095B182E0892785B9609184037091850343
:101016008091860390918703E0919003F09191036C
:101026000995FF91EF91BF91AF919F918F917F911C
:101036006F915F914F913F912F910F900FBE0F903F
:041046001F9018954A
:10104A00A2E0B0E0EBE2F8E00C94370D4C016B0142
:10105A00FB012281338164807580808191819A832A
:10106A008983A680B78037FD03C08D7F9A838983E1
:10107A00FA014081518162817381CE0101967C011E
:10108A0008E010E09301C6010E946607298124FF47
:10109A0006C00197F501E80FF91F20E32083298193
:1010AA0023FF06C00197F501E80FF91F20E220830C
:1010BA0009811A81F6014085518541505109481B21
:1010CA00590BB501680F791F9301C4010E945E0A8A
:1010DA009C01F4018081918190FF06C0F601828112
:1010EA009381821793070CF4C9012296EEE00C94BF
:0210FA006E0D79
:1010FC00CF92DF92EF92FF921F93CF93DF93C82F83
:10110C00E2E1F3E014910E946E0E8C2F0E947A0E95
:10111C00811135C084EE0E94620E811132C089EFBC
:10112C0090E00197F1F700C000000F2EF3E1CF2EF5
:10113C00F3E0DF2EF02D1EC0E6012196F60184911E
:10114C000E94620E81111FC0FE01E490F12CF2E0AE
:10115C00EF0EF11CEC0CFD1C219607C0FE018491D6
:10116C000E94620E2196811110C06E01CE15DF0512
:10117C00A9F711501111E0CF0E94E90E07C0182FEA
:10118C0005C0182F03C0182F01C0182F812FDF9115
:0E119C00CF911F91FF90EF90DF90CF900895BC
:1011AA000F931F93CF93DF93DB01109719F48FEFFF
:1011BA009FEF3DC02D913C91119730FF25C01696A7
:1011CA004D915C91179714962D913C911597421762
:1011DA00530778F41296ED91FC9113978083129637
:1011EA002D913C9113972F5F3F4F13963C932E936B
:1011FA00129716962D913C9117972F5F3F4F17968E
:10120A003C932E93169713C01C96ED91FC911D9753
:10121A00309769F2EB01092F182F0995892B39F6B6
:10122A008E819F8101969F838E83812F902FDF91DC
:08123A00CF911F910F9108955F
:10124200A2E0B0E0E7E2F9E00C94370D5C016B013B
:10125200FB012281338184809580808191819A83F0
:1012620089836680778037FD03C08D7F9A83898367
:10127200FA014081518162817381CE0101967C0124
:101282000AE010E09401C6010E94660709811A81F2
:10129200F6014085518541505109481B590BB30154
:1012A200680F791F9401C5010E945E0A9C01F50135
:1012B2008081918190FF06C0F6018281938182171D
:0E12C20093070CF4C9012296EEE00C946E0D19
:1012D0000F931F93CF93DF93C82FD62F142F022F76
:1012E0008CE30E947A0E81112FC081E20E94620E6F
:1012F00081112AC08C2F0E94620E811125C08D2F72
:101300000E94620E811120C08C2F90E090938F0379
:1013100080938E0382E20E94620E811115C0812F9C
:101320000E94620E811110C0802F0E94620EC82F91
:1013300081110AC0812F90E090938D0380938C03DC
:101340000E94E90E8C2F00C0DF91CF911F910F9169
:021350000895FE
:10135200CF93DF938CE30E947A0E811135C081E234
:101362000E94620E811130C00E94620E81112CC057
:101372008FE70E94620E811127C010928F03109294
:101382008E0382E20E94620E81111EC00E94620ED2
:1013920081111AC087E00E94620E811115C010925D
:1013A2008D0310928C0380E40E949F0D81110CC06A
:1013B200C0E0D4E080E00E949F0D811105C021971A
:0E13C200C9F70E94E90E80E0DF91CF910895F7
:1013D000A2E8B0E0EEEEF9E00C94390D5C014A01B0
:1013E000CF57DF4F79836883C158D040C12CD12CAF
:1013F000CF57DF4FE881F981C158D04080818823E1
:10140000E9F07401860120E830E0AE014F5F5F4FE4
:10141000BE016F577F4FC5010E949F018C0D9D1D1E
:101420008C159D054CF48FE490E09093010180931E
:1014300000018FEF9FEF03C06C01DACFC601CE57DA
:08144000DF4FECE00C94700D8D
:10144800A0E1B0E0EAE2FAE00C943F0DFB01BA013A
:10145800AE014F5F5F4F7A0140E1D7011D924A9577
:10146800E9F742E051E05A8349839C838B83F7FF75
:1014780009C08FE490E090930101809300018FEF01
:101488009FEF14C0A9018C013197FE83ED83C7013A
:101498000E94E80D4F8158852D813E8142175307E0
:1014A80008F49A01F801E20FF31F10826096E6E053
:0414B8000C94760D0D
:1014BC00A0E0B0E0E4E6FAE00C94390D6C015B01BD
:1014CC007A01E901480181E08822992400FD03C0DA
:1014DC004217530750F0A701B501C6010E94160D23
:1014EC00EC16FD0610F0C70117C08E010E191F096E
:1014FC000115110541F0B60180E290E00E94D5087B
:10150C0001501109F5CF8114910429F4A701B501FB
:10151C00C6010E94160DCE01CDB7DEB7ECE00C94DF
:02152C00700D40
:10152E00823090F5282F30E0F901EE0FFF1FEE0FFD
:10153E00FF1FE559FC4F0190F081E02DE35FFE4067
:10154E0029F5882319F0813049F013C0E9E6F0E05F
:10155E0080818C7F482B4083E89A0BC0E9E6F0E04F
:10156E008081837F94E0499FA0011124482B408302
:10157E00E99A220F331F220F331FF901E559FC4F51
:10158E007183608381E0089580E0089580E008957E
:10159E001F920F920FB60F9211242F933F934F93DA
:1015AE005F936F937F938F939F93AF93BF93EF93BD
:1015BE00FF93ABE6B3E016968D919C91179701962B
:1015CE0017969C938E9316971496ED91FC91159702
:1015DE0016968D919C9117970995FF91EF91BF915A
:1015EE00AF919F918F917F916F915F914F913F91AD
:0C15FE002F910F900FBE0F901F901895BA
:10160A001F920F920FB60F9211242F933F934F936D
:10161A005F936F937F938F939F93AF93BF93EF9350
:10162A00FF93ABE6B3E012968D919C9113970196C6
:10163A0013969C938E931297ED91FC9111971296A3
:10164A008D919C9113970995FF91EF91BF91AF915D
:10165A009F918F917F916F915F914F913F912F91C0
:0A166A000F900FBE0F901F9018950F
:101674001F920F920FB60F9211241F932F933F9333
:101684004F935F936F937F938F939F93AF93BF9386
:10169400CF93DF93EF93FF93C6ECD0E01881E091F2
:1016A4009603F0919703812F099518837894FF91FD
:1016B400EF91DF91CF91BF91AF919F918F917F91E6
:1016C4006F915F914F913F912F911F910F900FBE9A
:0616D4000F901F90189515
:1016DA000F931F93CF93DF938C010F5F1F4FFC0172
:1016EA0080816115710519F48FEF9FEF1EC0FB0110
:1016FA0024853585232BC1F3EB01EC85FD85BE01DD
:10170A00882339F00995892B79F7F80181918F019E
:10171A00F4CF8AE0099521E030E0892B11F420E02A
:10172A0030E088279927821B930BDF91CF911F9175
:04173A000F9108956E
:10173E00DC01ED91FC91119780818A3221F080E0DD
:10174E0090E03AE00EC03196ED93FC93DB01ED9103
:10175E00FC911197CF0102968D939C93808191817C
:10176E000895ED91FC911197208120532A3068F451
:10177E00389FA001399F500D1124CA01820F911D6F
:0C178E0031961196FC93EE93ECCF089579
:10179A000F931F93CF93DF9300D000D0CDB7DEB75E
:1017AA001F928F9384E391E09F938F938E010F5F33
:1017BA001F4F1F930F930E94260E1F930F9389E3C7
:1017CA0091E09F938F930E94B80D0FB6F894DEBFF5
:1017DA000FBECDBF0F900F900F900F90DF91CF915A
:0617EA001F910F9108950C
:1017F000A0E0B0E0EEEFFBE00C943B0D7C01FB01C0
:10180000EA01C901A280B380C480D5800081118122
:10181000209711F4C3E7D3E0009719F4CE010E949A
:10182000480EB7FC04C0A816B90608F4C501960115
:10183000AC01BE01C7010E945E0ACDB7DEB7EAE087
:041840000C94720D85
:101844008130910581F08830910581F080349105D3
:1018540081F0811521E0920779F081159440B9F463
:1018640084E090E00BC080E090E008C081E090E06C
:1018740005C082E090E002C083E090E0880F991FE9
:10188400880F991FFC01E95BFC4F8281089581E078
:021894000895B5
:101896000F931F93CF93DF938C01EB0116BC14BCFF
:1018A60015BA80E490E00E94220C95B5892B85BD7F
:1018B600109395030093940310928403109285036A
:1018C6001092860310928703D0939103C0939003DE
:0A18D600DF91CF911F910F9108954B
:1018E000E9EBF0E080818775808385EA8093BC0016
:1018F0008FEF91E0ECEBF0E02081222314F00197D0
:10190000D9F78091B900887F883049F08091B9007B
:10191000887F803131F08091B900887F089580E020
:06192000089580E0089527
:10192600CF938823E4F4C62F6730A0F482E090E0DA
:1019360090938F0380938E0360918C0370918D0337
:101946006F5F7F4F70938D0360938C030E94C40E6C
:10195600811106C081E0C73018F480E001C080E044
:04196600CF91089580
:10196A00A1E21A2EAA1BBB1BFD010DC0AA1FBB1F99
:10197A00EE1FFF1FA217B307E407F50720F0A21B0B
:10198A00B30BE40BF50B661F771F881F991F1A9478
:10199A0069F760957095809590959B01AC01BD01A2
:0419AA00CF010895CC
:1019AE00CF93DF93EC0190E0E92FF0E0EE0FFF1FF5
:1019BE00EF5CFC4F8081811102C081810EC0A88135
:1019CE00B9812C91821305C091811196B983A88398
:1019DE0001C09F5F9B3040F3892FDF91CF91089517
:1019EE008091A30381508093A3038091A30381115F
:1019FE0007C00E94D00E299881E080939D03089520
:101A0E008091A3031F928F9382E091E09F938F9317
:0E1A1E000E94D00D0F900F900F900F90089522
:101A2C00A0E0B0E0ECE1FDE00C943D0D6C01EB01AD
:101A3C008A017B01E40EF51ECE15DF0541F089917C
:101A4C00B601082E000C990B0E94D508F5CFC801E1
:0A1A5C00CDB7DEB7E8E00C94740D7E
:101A66002F923F924F925F926F927F928F929F92A8
:101A7600AF92BF92CF92DF92EF92FF920F931F9396
:101A8600CF93DF93CDB7DEB7CA1BDB0B0FB6F89447
:081A9600DEBF0FBECDBF0994B5
:101A9E000F931F93CF93DF93FC018081882369F00E
:101AAE00D62F8F01C0E0CF5F6D2F0E94E605F801A3
:101ABE00EC0FF11D80818111F6CF80E0DF91CF9187
:061ACE001F910F91089525
:101AD4002A88398848885F846E847D848C849B84BA
:101AE400AA84B984C884DF80EE80FD800C811B81C8
:101AF400AA81B981CE0FD11D0FB6F894DEBF0FBEF7
:061B0400CDBFED010895C4
:101B0A00880F8093BB0084E88093BC008FEF91E03C
:101B1A00ECEBF0E02081222314F00197D9F78091B1
:101B2A00B900887F883121F08091B900887F0895B3
:041B3A0080E00895AA
:101B3E008093BB0084E88093BC008FEF91E0ECEBC8
:101B4E00F0E02081222314F00197D9F78091B9009B
:101B5E00887F883221F08091B900887F089580E0D7
:021B6E000895D8
:101B7000A0E0B0E0EEEBFDE00C94430DAE014B5F56
:101B80005F4FFA0161917191AF01E0919803F0917B
:101B90009903808191810E94E80DE2E00C947A0D16
:101BA000A0E0B0E0E6EDFDE00C94430DAE014B5F2C
:101BB0005F4FFA0161917191AF01E0919803F0914B
:101BC0009903808191810E94E80DE2E00C947A0DE6
:101BD000A2E0B0E0EEEEFDE00C94410D8C015A83E2
:101BE0004983AE014F5F5F4F0E94E809F8012081F1
:101BF00024FF02C08FEF9FEF2296E4E00C94780D53
:101C0000ECE7F0E09081987F8770892B8083EAE78A
:101C1000F0E0808180648083808186FDFDCF8091AB
:081C200078009091790008950D
:101C280020918A0330918B032F5F3F4F30938B03B2
:101C380020938A03909389038093880381E080939B
:041C4800A203089556
:101C4C00A0E0B0E0ECE2FEE00C94430DAE01475F87
:101C5C005F4F6F8178858D819E810E94BD0EE2E081
:041C6C000C947A0D4D
:101C700087E68093C4001092C5001092C00088E1EE
:101C80008093C10086E08093C2000E949A0E08955E
:101C9000FC01AF014F5F5F4F2081222311F0FA0159
:0C1CA000F8CF9F01281B390BC9010895E3
:101CAC0060938003709381038093820390938303EA
:081CBC0081E08093A20308956A
:101CC400CF93C82F80E80E949F0D811103C08C2FF1
:081CD4000E949F0DCF910895BD
:101CDC0082E08093B800E9EBF0E080819081827023
:081CEC008160892B80830895BB
:101CF400CF93C82F0E94700C811103C08C2F0E94B7
:061D0400850DCF9108954A
:101D0A00EC010E94F50E0E94F40ECE010E94F60E1E
:061D1A00CE010E94EF0E55
:101D2000E0ECF0E0908195FFFDCF8093C60080E06D
:041D300090E00895A2
:101D3400E0919803F09199038BE593E0918380837C
:021D4400089500
:101D4600E0919803F0919903608171810E946D0B77
:021D56000895EE
:101D58009C01215631092A31310510F48F759927D4
:021D68000895DC
:101D6A009C01215431092A31310508F48062089511
:0E1D7A009A01AB016FEF7FE70E94240A0895E3
:0C1D8800462F27E06FE70E9468090895CD
:0C1D9400EEE6F0E080818160808308951D
:0C1DA000EEE6F0E080818E7F80830895E5
:0C1DAC00E1ECF0E0808180688083089505
:0A1DB800909397038093960308951B
:081DC20081E080939C03089569
:081DCA0081110E94CD0B089568
:081DD20084E98093BC00089530
:041DDA000C94000065
:041DDE000E949700C8
:021DE200089562
:021DE400189550
:021DE60008955E
:021DE80008955C
:021DEA0008955A
:021DEC00089558
:101DEE0025642073656B756E6465722074696C6210
:101DFE006167652074696C204164616672756974EF
:101E0E0020446973706C6179204F707374617274C1
:101E1E000A003078257800446973706C617920432C
:101E2E006F6465203A2025730A000A56656E746544
:101E3E007220692025642073656B756E646572204F
:101E4E0070E520416461667275697420446973702F
:101E5E006C6179204F7073746172740A000A0A4EB5
:101E6E00752073746172746572207669206D656475
:101E7E0020617420746573746520446973706C619D
:101E8E007965742021212100446973706C61792079
:101E9E004E4F542070726F7065726C7920696E6946
:101EAE007469616C697A656420212121004469732B
:101EBE00706C61792070726F7065726C7920696ECA
:101ECE00697469616C697A6564206920446973700C
:101EDE006C617954657374436F6465202121210010
:101EEE0046656A6C207665642066756E6B74696FE4
:101EFE006E656E203A20535344313330365F436C57
:101F0E0065617253637265656E0046656A6C207614
:101F1E0065642066756E6B74696F6E656E203A200F
:101F2E00535344313330365F536574506F73697455
:101F3E00696F6E2825642C2564290A006834706444
:101F4E0030313131323520737479726572004665E5
:101F5E006A6C207665642066756E6B74696F6E654B
:101F6E006E203A20535344313330365F44726177DA
:101F7E00537472696E67282757616974696E67209A
:101F8E00212121272C204E4F524D414C29004469CE
:101F9E0073706C61792070726F7065726C792069E4
:101FAE006E697469616C697A6564206F6720696E09
:101FBE0067656E2066656A6C206865726566746515
:101FCE00722021212100446973706C617920707236
:101FDE006F7065726C7920696E697469616C697A6B
:101FEE006564206D656E2066656A6C206865726535
:101FFE0066746572202121210025640054696D6587
:0F200E0072436F756E746572203A2025640A0064
:10201D0068076C094C836A9074A07AC00080688848
:06202D0000846C820081BA
:102033000100010008000200400003000001040049
:042043000004050090
:10204700030000000000000000000000900E0000E8
:08205700F30E0000F30E00007F
:07205F00286E756C6C29006E
:06206600286E696C2900E0
:02206C009A03D5
:01206E003C35
:00000001FF
